{
  "_format": "hh-sol-artifact-1",
  "contractName": "DocumentRegistry",
  "sourceName": "contracts/DocumentRegistry.sol",
  "abi": [
    {
      "inputs": [],
      "stateMutability": "nonpayable",
      "type": "constructor"
    },
    {
      "inputs": [
        {
          "internalType": "address",
          "name": "owner",
          "type": "address"
        }
      ],
      "name": "OwnableInvalidOwner",
      "type": "error"
    },
    {
      "inputs": [
        {
          "internalType": "address",
          "name": "account",
          "type": "address"
        }
      ],
      "name": "OwnableUnauthorizedAccount",
      "type": "error"
    },
    {
      "anonymous": false,
      "inputs": [
        {
          "indexed": true,
          "internalType": "bytes32",
          "name": "docHash",
          "type": "bytes32"
        },
        {
          "indexed": false,
          "internalType": "uint256",
          "name": "timestamp",
          "type": "uint256"
        }
      ],
      "name": "DocumentRevoked",
      "type": "event"
    },
    {
      "anonymous": false,
      "inputs": [
        {
          "indexed": true,
          "internalType": "bytes32",
          "name": "docHash",
          "type": "bytes32"
        },
        {
          "indexed": false,
          "internalType": "string",
          "name": "ipfsCid",
          "type": "string"
        },
        {
          "indexed": false,
          "internalType": "uint256",
          "name": "timestamp",
          "type": "uint256"
        }
      ],
      "name": "DocumentStored",
      "type": "event"
    },
    {
      "anonymous": false,
      "inputs": [
        {
          "indexed": true,
          "internalType": "address",
          "name": "previousOwner",
          "type": "address"
        },
        {
          "indexed": true,
          "internalType": "address",
          "name": "newOwner",
          "type": "address"
        }
      ],
      "name": "OwnershipTransferred",
      "type": "event"
    },
    {
      "inputs": [],
      "name": "owner",
      "outputs": [
        {
          "internalType": "address",
          "name": "",
          "type": "address"
        }
      ],
      "stateMutability": "view",
      "type": "function"
    },
    {
      "inputs": [],
      "name": "renounceOwnership",
      "outputs": [],
      "stateMutability": "nonpayable",
      "type": "function"
    },
    {
      "inputs": [
        {
          "internalType": "bytes32",
          "name": "docHash",
          "type": "bytes32"
        }
      ],
      "name": "revokeDocument",
      "outputs": [],
      "stateMutability": "nonpayable",
      "type": "function"
    },
    {
      "inputs": [
        {
          "internalType": "bytes32",
          "name": "docHash",
          "type": "bytes32"
        },
        {
          "internalType": "string",
          "name": "ipfsCid",
          "type": "string"
        }
      ],
      "name": "storeDocument",
      "outputs": [],
      "stateMutability": "nonpayable",
      "type": "function"
    },
    {
      "inputs": [
        {
          "internalType": "address",
          "name": "newOwner",
          "type": "address"
        }
      ],
      "name": "transferOwnership",
      "outputs": [],
      "stateMutability": "nonpayable",
      "type": "function"
    },
    {
      "inputs": [
        {
          "internalType": "bytes32",
          "name": "docHash",
          "type": "bytes32"
        }
      ],
      "name": "verifyDocument",
      "outputs": [
        {
          "internalType": "bool",
          "name": "exists",
          "type": "bool"
        },
        {
          "internalType": "uint256",
          "name": "timestamp",
          "type": "uint256"
        },
        {
          "internalType": "string",
          "name": "ipfsCid",
          "type": "string"
        },
        {
          "internalType": "bool",
          "name": "revoked",
          "type": "bool"
        }
      ],
      "stateMutability": "view",
      "type": "function"
    }
  ],
  "bytecode": "0x608060405234801561001057600080fd5b5033600073ffffffffffffffffffffffffffffffffffffffff168173ffffffffffffffffffffffffffffffffffffffff16036100845760006040517f1e4fbdf700000000000000000000000000000000000000000000000000000000815260040161007b919061019e565b60405180910390fd5b6100938161009960201b60201c565b506101b9565b60008060009054906101000a900473ffffffffffffffffffffffffffffffffffffffff169050816000806101000a81548173ffffffffffffffffffffffffffffffffffffffff021916908373ffffffffffffffffffffffffffffffffffffffff1602179055508173ffffffffffffffffffffffffffffffffffffffff168173ffffffffffffffffffffffffffffffffffffffff167f8be0079c531659141344cd1fd0a4f28419497f9722a3daafe3b4186f6b6457e060405160405180910390a35050565b600073ffffffffffffffffffffffffffffffffffffffff82169050919050565b60006101888261015d565b9050919050565b6101988161017d565b82525050565b60006020820190506101b3600083018461018f565b92915050565b610ef9806101c86000396000f3fe608060405234801561001057600080fd5b50600436106100625760003560e01c8063582e69d914610067578063715018a6146100835780638da5cb5b1461008d578063952be80d146100ab578063f2fde38b146100c7578063fe35089f146100e3575b600080fd5b610081600480360381019061007c9190610819565b610116565b005b61008b610255565b005b610095610269565b6040516100a291906108b6565b60405180910390f35b6100c560048036038101906100c091906108d1565b610292565b005b6100e160048036038101906100dc919061092a565b6103ca565b005b6100fd60048036038101906100f891906108d1565b610450565b60405161010d9493929190610a0a565b60405180910390f35b6001600083815260200190815260200160002060000160009054906101000a900460ff161561017a576040517f08c379a000000000000000000000000000000000000000000000000000000000815260040161017190610aa2565b60405180910390fd5b6040518060800160405280600115158152602001428152602001828152602001600015158152506001600084815260200190815260200160002060008201518160000160006101000a81548160ff0219169083151502179055506020820151816001015560408201518160020190816101f39190610cce565b5060608201518160030160006101000a81548160ff021916908315150217905550905050817fb7a8f094b1c34945a1dbc94d21805de3ec4cf7b86dd19ed64aa1a8719f3cd6778242604051610249929190610da0565b60405180910390a25050565b61025d610536565b61026760006105bd565b565b60008060009054906101000a900473ffffffffffffffffffffffffffffffffffffffff16905090565b61029a610536565b6001600082815260200190815260200160002060000160009054906101000a900460ff166102fd576040517f08c379a00000000000000000000000000000000000000000000000000000000081526004016102f490610e1c565b60405180910390fd5b6001600082815260200190815260200160002060030160009054906101000a900460ff1615610361576040517f08c379a000000000000000000000000000000000000000000000000000000000815260040161035890610e88565b60405180910390fd5b600180600083815260200190815260200160002060030160006101000a81548160ff021916908315150217905550807f17ceb56661e717a45c4f9160c9106b02e3c9ab6ecb42da2b1c6a59e8cbfd4aa1426040516103bf9190610ea8565b60405180910390a250565b6103d2610536565b600073ffffffffffffffffffffffffffffffffffffffff168173ffffffffffffffffffffffffffffffffffffffff16036104445760006040517f1e4fbdf700000000000000000000000000000000000000000000000000000000815260040161043b91906108b6565b60405180910390fd5b61044d816105bd565b50565b60008060606000806001600087815260200190815260200160002090508060000160009054906101000a900460ff168160010154826002018360030160009054906101000a900460ff168180546104a690610af1565b80601f01602080910402602001604051908101604052809291908181526020018280546104d290610af1565b801561051f5780601f106104f45761010080835404028352916020019161051f565b820191906000526020600020905b81548152906001019060200180831161050257829003601f168201915b505050505091509450945094509450509193509193565b61053e610681565b73ffffffffffffffffffffffffffffffffffffffff1661055c610269565b73ffffffffffffffffffffffffffffffffffffffff16146105bb5761057f610681565b6040517f118cdaa70000000000000000000000000000000000000000000000000000000081526004016105b291906108b6565b60405180910390fd5b565b60008060009054906101000a900473ffffffffffffffffffffffffffffffffffffffff169050816000806101000a81548173ffffffffffffffffffffffffffffffffffffffff021916908373ffffffffffffffffffffffffffffffffffffffff1602179055508173ffffffffffffffffffffffffffffffffffffffff168173ffffffffffffffffffffffffffffffffffffffff167f8be0079c531659141344cd1fd0a4f28419497f9722a3daafe3b4186f6b6457e060405160405180910390a35050565b600033905090565b6000604051905090565b600080fd5b600080fd5b6000819050919050565b6106b08161069d565b81146106bb57600080fd5b50565b6000813590506106cd816106a7565b92915050565b600080fd5b600080fd5b6000601f19601f8301169050919050565b7f4e487b7100000000000000000000000000000000000000000000000000000000600052604160045260246000fd5b610726826106dd565b810181811067ffffffffffffffff82111715610745576107446106ee565b5b80604052505050565b6000610758610689565b9050610764828261071d565b919050565b600067ffffffffffffffff821115610784576107836106ee565b5b61078d826106dd565b9050602081019050919050565b82818337600083830152505050565b60006107bc6107b784610769565b61074e565b9050828152602081018484840111156107d8576107d76106d8565b5b6107e384828561079a565b509392505050565b600082601f830112610800576107ff6106d3565b5b81356108108482602086016107a9565b91505092915050565b600080604083850312156108305761082f610693565b5b600061083e858286016106be565b925050602083013567ffffffffffffffff81111561085f5761085e610698565b5b61086b858286016107eb565b9150509250929050565b600073ffffffffffffffffffffffffffffffffffffffff82169050919050565b60006108a082610875565b9050919050565b6108b081610895565b82525050565b60006020820190506108cb60008301846108a7565b92915050565b6000602082840312156108e7576108e6610693565b5b60006108f5848285016106be565b91505092915050565b61090781610895565b811461091257600080fd5b50565b600081359050610924816108fe565b92915050565b6000602082840312156109405761093f610693565b5b600061094e84828501610915565b91505092915050565b60008115159050919050565b61096c81610957565b82525050565b6000819050919050565b61098581610972565b82525050565b600081519050919050565b600082825260208201905092915050565b60005b838110156109c55780820151818401526020810190506109aa565b60008484015250505050565b60006109dc8261098b565b6109e68185610996565b93506109f68185602086016109a7565b6109ff816106dd565b840191505092915050565b6000608082019050610a1f6000830187610963565b610a2c602083018661097c565b8181036040830152610a3e81856109d1565b9050610a4d6060830184610963565b95945050505050565b7f446f63756d656e7420616c726561647920726567697374657265640000000000600082015250565b6000610a8c601b83610996565b9150610a9782610a56565b602082019050919050565b60006020820190508181036000830152610abb81610a7f565b9050919050565b7f4e487b7100000000000000000000000000000000000000000000000000000000600052602260045260246000fd5b60006002820490506001821680610b0957607f821691505b602082108103610b1c57610b1b610ac2565b5b50919050565b60008190508160005260206000209050919050565b60006020601f8301049050919050565b600082821b905092915050565b600060088302610b847fffffffffffffffffffffffffffffffffffffffffffffffffffffffffffffffff82610b47565b610b8e8683610b47565b95508019841693508086168417925050509392505050565b6000819050919050565b6000610bcb610bc6610bc184610972565b610ba6565b610972565b9050919050565b6000819050919050565b610be583610bb0565b610bf9610bf182610bd2565b848454610b54565b825550505050565b600090565b610c0e610c01565b610c19818484610bdc565b505050565b5b81811015610c3d57610c32600082610c06565b600181019050610c1f565b5050565b601f821115610c8257610c5381610b22565b610c5c84610b37565b81016020851015610c6b578190505b610c7f610c7785610b37565b830182610c1e565b50505b505050565b600082821c905092915050565b6000610ca560001984600802610c87565b1980831691505092915050565b6000610cbe8383610c94565b9150826002028217905092915050565b610cd78261098b565b67ffffffffffffffff811115610cf057610cef6106ee565b5b610cfa8254610af1565b610d05828285610c41565b600060209050601f831160018114610d385760008415610d26578287015190505b610d308582610cb2565b865550610d98565b601f198416610d4686610b22565b60005b82811015610d6e57848901518255600182019150602085019450602081019050610d49565b86831015610d8b5784890151610d87601f891682610c94565b8355505b6001600288020188555050505b505050505050565b60006040820190508181036000830152610dba81856109d1565b9050610dc9602083018461097c565b9392505050565b7f446f63756d656e74206e6f7420666f756e640000000000000000000000000000600082015250565b6000610e06601283610996565b9150610e1182610dd0565b602082019050919050565b60006020820190508181036000830152610e3581610df9565b9050919050565b7f416c7265616479207265766f6b65640000000000000000000000000000000000600082015250565b6000610e72600f83610996565b9150610e7d82610e3c565b602082019050919050565b60006020820190508181036000830152610ea181610e65565b9050919050565b6000602082019050610ebd600083018461097c565b9291505056fea2646970667358221220656c5237326c309fbd47ad7dc30b1a693c1207b4cada6f22ab186b8ce4d349b064736f6c63430008140033",
  "linkReferences": {},
  "deployedLinkReferences": {}
}